S01B000041546D656761333238702050726F6A656374732E7372656363
S11300000C9434000C9449000C94F1010C944900B4
S11300100C9449000C9449000C9449000C94490038
S11300200C9449000C9449000C9449000C94490028
S11300300C9449000C9449000C9449000C94490018
S11300400C9449000C9449000C9449000C94490008
S11300500C9449000C9449000C9449000C944900F8
S11300600C9449000C94490011241FBECFEFD8E032
S1130070DEBFCDBF11E0A0E0B1E0E8E4F4E002C0EF
S113008005900D92A230B107D9F70E944F010C944C
S113009022020C94000020E030E01BC045B181E056
S11300A090E0022E02C0880F991F0A94E2F7942F61
S11300B0982B95B94FEF51EE64E0415050406040A9
S11300C0E1F700C0000095B18095892385B92F5FC1
S11300D03F4F2230310514F38BB184608BB98FEF1D
S11300E091EE24E0815090402040E1F700C00000F0
S11300F08BB18B7F8BB985B1846085B94FEF51EE9D
S113010064E0415050406040E1F700C0000085B118
S11301108B7F85B924E030E01BC04BB181E090E0D7
S1130120022E02C0880F991F0A94E2F7942F982B8D
S11301309BB94FEF51EE64E0415050406040E1F70D
S113014000C000009BB1809589238BB92F5F3F4F7E
S11301502830310514F3089520E030E016C045B18D
S113016081E090E0022E02C0880F991F0A94E2F702
S1130170842B85B94FEF81EE94E04150804090404C
S1130180E1F700C000002F5F3F4F223031053CF300
S11301908BB184608BB92FEF41EE84E02150404055
S11301A08040E1F700C0000085B1846085B99FEF0D
S11301B021EE44E0915020404040E1F700C00000AF
S11301C024E030E016C04BB181E090E0022E02C082
S11301D0880F991F0A94E2F7842B8BB98FEF91EE65
S11301E044E0815090404040E1F700C000002F5FA0
S11301F03F4F283031053CF320E030E017C045B1D3
S113020081E090E0022E02C0880F991F0A94E2F761
S11302108095842385B98FEF91EE44E0815090401E
S11302204040E1F700C000002F5F3F4F223031050E
S113023034F38BB18B7F8BB98FEF91EE24E0815037
S113024090402040E1F700C0000085B18B7F85B964
S11302504FEF81EE94E0415080409040E1F700C0C0
S1130260000024E030E017C04BB181E090E0022EA2
S113027002C0880F991F0A94E2F7809584238BB9F2
S11302804FEF81EE94E0415080409040E1F700C090
S113029000002F5F3F4F2830310534F3089584B1B7
S11302A0876084B98AB1846F8AB98BB188608BB94D
S11302B0E9E6F0E080818860808382E08DBB7894F9
S11302C0C0E0D0E0CE0181709927C0FF03C0019740
S11302D021F005C00E944B0002C00E94AC00219690
S11302E0F1CF60E070E078C022303105D9F01CF421
S11302F0332344F422C02330310581F02830310502
S1130300E4F410C0E5B141E050E0022E02C0440F15
S1130310551F0A94E2F74E2B45B90FC045B144600E
S113032045B90BC0EBB141E050E0022E02C0440FCE
S1130330551F0A94E2F74E2B4BB92F5F3F4F02C073
S113034020E030E0283031057CF22FEF39E648E137
S1130350215030404040E1F700C0000020E030E090
S11303602DC022303105E1F01CF4332344F424C0C1
S11303702330310589F028303105F4F411C0E5B19A
S113038041E050E0022E02C0440F551F0A94E2F7E8
S113039040954E2345B910C045B14B7F45B90CC0BB
S11303A0EBB141E050E0022E02C0440F551F0A9405
S11303B0E2F740954E234BB92F5F3F4F283031056C
S11303C084F22FEF39E648E1215030404040E1F714
S11303D000C000006F5F7F4F681779070CF4B0CF3F
S11303E008951F920F920FB60F9211242F933F93EB
S11303F04F935F936F937F938F939F93AF93BF9329
S1130400EF93FF93F89480910001909101019C0176
S11304102F5F3F4F30930101209300010E9471012F
S11304207894FF91EF91BF91AF919F918F917F91BC
S11304306F915F914F913F912F910F900FBE0F904D
S10B04401F901895F894FFCFFA
S10504480100AD
S9030000FC
